{
  "_format": "hh-sol-artifact-1",
  "contractName": "EnergyMarketplace",
  "sourceName": "contracts/EnergyMarketplace.sol",
  "abi": [
    {
      "anonymous": false,
      "inputs": [
        {
          "indexed": false,
          "internalType": "uint256",
          "name": "offerId",
          "type": "uint256"
        },
        {
          "indexed": true,
          "internalType": "address",
          "name": "seller",
          "type": "address"
        },
        {
          "indexed": false,
          "internalType": "uint256",
          "name": "energyAmount",
          "type": "uint256"
        },
        {
          "indexed": false,
          "internalType": "uint256",
          "name": "price",
          "type": "uint256"
        }
      ],
      "name": "OfferCreated",
      "type": "event"
    },
    {
      "anonymous": false,
      "inputs": [
        {
          "indexed": false,
          "internalType": "uint256",
          "name": "offerId",
          "type": "uint256"
        },
        {
          "indexed": false,
          "internalType": "enum EnergyMarketplace.OfferStatus",
          "name": "status",
          "type": "uint8"
        }
      ],
      "name": "OfferStatusChanged",
      "type": "event"
    },
    {
      "anonymous": false,
      "inputs": [
        {
          "indexed": false,
          "internalType": "uint256",
          "name": "offerId",
          "type": "uint256"
        },
        {
          "indexed": false,
          "internalType": "uint256",
          "name": "energyAmount",
          "type": "uint256"
        },
        {
          "indexed": false,
          "internalType": "uint256",
          "name": "price",
          "type": "uint256"
        }
      ],
      "name": "OfferUpdated",
      "type": "event"
    },
    {
      "inputs": [
        {
          "internalType": "uint256",
          "name": "_offerId",
          "type": "uint256"
        },
        {
          "internalType": "enum EnergyMarketplace.OfferStatus",
          "name": "_newStatus",
          "type": "uint8"
        },
        {
          "internalType": "address",
          "name": "_userAddress",
          "type": "address"
        }
      ],
      "name": "changeOfferStatus",
      "outputs": [],
      "stateMutability": "nonpayable",
      "type": "function"
    },
    {
      "inputs": [
        {
          "internalType": "uint256",
          "name": "_energyAmount",
          "type": "uint256"
        },
        {
          "internalType": "uint256",
          "name": "_price",
          "type": "uint256"
        },
        {
          "internalType": "address",
          "name": "_seller",
          "type": "address"
        }
      ],
      "name": "createOffer",
      "outputs": [],
      "stateMutability": "nonpayable",
      "type": "function"
    },
    {
      "inputs": [
        {
          "internalType": "uint256",
          "name": "_offerId",
          "type": "uint256"
        },
        {
          "internalType": "uint256",
          "name": "_newEnergyAmount",
          "type": "uint256"
        },
        {
          "internalType": "uint256",
          "name": "_newPrice",
          "type": "uint256"
        },
        {
          "internalType": "address",
          "name": "_userAddress",
          "type": "address"
        }
      ],
      "name": "editOffer",
      "outputs": [],
      "stateMutability": "nonpayable",
      "type": "function"
    },
    {
      "inputs": [
        {
          "internalType": "uint256",
          "name": "_offerId",
          "type": "uint256"
        }
      ],
      "name": "getOffer",
      "outputs": [
        {
          "components": [
            {
              "internalType": "uint256",
              "name": "id",
              "type": "uint256"
            },
            {
              "internalType": "address",
              "name": "seller",
              "type": "address"
            },
            {
              "internalType": "address",
              "name": "gasPayer",
              "type": "address"
            },
            {
              "internalType": "uint256",
              "name": "energyAmount",
              "type": "uint256"
            },
            {
              "internalType": "uint256",
              "name": "price",
              "type": "uint256"
            },
            {
              "internalType": "enum EnergyMarketplace.OfferStatus",
              "name": "status",
              "type": "uint8"
            },
            {
              "internalType": "uint256",
              "name": "timestamp",
              "type": "uint256"
            }
          ],
          "internalType": "struct EnergyMarketplace.Offer",
          "name": "",
          "type": "tuple"
        }
      ],
      "stateMutability": "view",
      "type": "function"
    },
    {
      "inputs": [
        {
          "internalType": "uint256",
          "name": "",
          "type": "uint256"
        }
      ],
      "name": "offers",
      "outputs": [
        {
          "internalType": "uint256",
          "name": "id",
          "type": "uint256"
        },
        {
          "internalType": "address",
          "name": "seller",
          "type": "address"
        },
        {
          "internalType": "address",
          "name": "gasPayer",
          "type": "address"
        },
        {
          "internalType": "uint256",
          "name": "energyAmount",
          "type": "uint256"
        },
        {
          "internalType": "uint256",
          "name": "price",
          "type": "uint256"
        },
        {
          "internalType": "enum EnergyMarketplace.OfferStatus",
          "name": "status",
          "type": "uint8"
        },
        {
          "internalType": "uint256",
          "name": "timestamp",
          "type": "uint256"
        }
      ],
      "stateMutability": "view",
      "type": "function"
    }
  ],
  "bytecode": "0x608060405234801561001057600080fd5b506111a8806100206000396000f3fe608060405234801561001057600080fd5b50600436106100575760003560e01c806342b6cc921461005c5780634579268a1461007857806366b6aff6146100a85780638a72ea6a146100c4578063e3e5a5f6146100fa575b600080fd5b61007660048036038101906100719190610b1a565b610116565b005b610092600480360381019061008d9190610b81565b61033b565b60405161009f9190610cd1565b60405180910390f35b6100c260048036038101906100bd9190610cec565b6104bb565b005b6100de60048036038101906100d99190610b81565b610719565b6040516100f19796959493929190610d6c565b60405180910390f35b610114600480360381019061010f9190610e00565b6107a8565b005b83818073ffffffffffffffffffffffffffffffffffffffff166001600084815260200190815260200160002060010160009054906101000a900473ffffffffffffffffffffffffffffffffffffffff1673ffffffffffffffffffffffffffffffffffffffff16146101bc576040517f08c379a00000000000000000000000000000000000000000000000000000000081526004016101b390610eb0565b60405180910390fd5b85600060028111156101d1576101d0610bcc565b5b6001600083815260200190815260200160002060050160009054906101000a900460ff16600281111561020757610206610bcc565b5b14610247576040517f08c379a000000000000000000000000000000000000000000000000000000000815260040161023e90610f1c565b60405180910390fd5b6000861161028a576040517f08c379a000000000000000000000000000000000000000000000000000000000815260040161028190610fae565b60405180910390fd5b600085116102cd576040517f08c379a00000000000000000000000000000000000000000000000000000000081526004016102c49061101a565b60405180910390fd5b60006001600089815260200190815260200160002090508681600301819055508581600401819055507f67a06c25c70c62c9e84b7fd26a70b3766b7aa7e05a6dd71267eeb737344db4508888886040516103299392919061103a565b60405180910390a15050505050505050565b610343610a06565b6000548210610387576040517f08c379a000000000000000000000000000000000000000000000000000000000815260040161037e906110bd565b60405180910390fd5b600160008381526020019081526020016000206040518060e0016040529081600082015481526020016001820160009054906101000a900473ffffffffffffffffffffffffffffffffffffffff1673ffffffffffffffffffffffffffffffffffffffff1673ffffffffffffffffffffffffffffffffffffffff1681526020016002820160009054906101000a900473ffffffffffffffffffffffffffffffffffffffff1673ffffffffffffffffffffffffffffffffffffffff1673ffffffffffffffffffffffffffffffffffffffff16815260200160038201548152602001600482015481526020016005820160009054906101000a900460ff16600281111561049457610493610bcc565b5b60028111156104a6576104a5610bcc565b5b81526020016006820154815250509050919050565b600083116104fe576040517f08c379a00000000000000000000000000000000000000000000000000000000081526004016104f590610fae565b60405180910390fd5b60008211610541576040517f08c379a00000000000000000000000000000000000000000000000000000000081526004016105389061101a565b60405180910390fd5b60006040518060e0016040528060005481526020018373ffffffffffffffffffffffffffffffffffffffff1681526020013373ffffffffffffffffffffffffffffffffffffffff168152602001858152602001848152602001600060028111156105ae576105ad610bcc565b5b81526020014281525090508060016000805481526020019081526020016000206000820151816000015560208201518160010160006101000a81548173ffffffffffffffffffffffffffffffffffffffff021916908373ffffffffffffffffffffffffffffffffffffffff16021790555060408201518160020160006101000a81548173ffffffffffffffffffffffffffffffffffffffff021916908373ffffffffffffffffffffffffffffffffffffffff160217905550606082015181600301556080820151816004015560a08201518160050160006101000a81548160ff021916908360028111156106a5576106a4610bcc565b5b021790555060c082015181600601559050508173ffffffffffffffffffffffffffffffffffffffff167fbf26a47e2418fff23bee5882ae59627d33e81fa75ab2b1fa08de6cf5f2fa376160005486866040516107039392919061103a565b60405180910390a26107136109f3565b50505050565b60016020528060005260406000206000915090508060000154908060010160009054906101000a900473ffffffffffffffffffffffffffffffffffffffff16908060020160009054906101000a900473ffffffffffffffffffffffffffffffffffffffff16908060030154908060040154908060050160009054906101000a900460ff16908060060154905087565b82818073ffffffffffffffffffffffffffffffffffffffff166001600084815260200190815260200160002060010160009054906101000a900473ffffffffffffffffffffffffffffffffffffffff1673ffffffffffffffffffffffffffffffffffffffff161461084e576040517f08c379a000000000000000000000000000000000000000000000000000000000815260040161084590610eb0565b60405180910390fd5b846000600281111561086357610862610bcc565b5b6001600083815260200190815260200160002060050160009054906101000a900460ff16600281111561089957610898610bcc565b5b146108d9576040517f08c379a00000000000000000000000000000000000000000000000000000000081526004016108d090610f1c565b60405180910390fd5b600160028111156108ed576108ec610bcc565b5b856002811115610900576108ff610bcc565b5b148061092f575060028081111561091a57610919610bcc565b5b85600281111561092d5761092c610bcc565b5b145b61096e576040517f08c379a000000000000000000000000000000000000000000000000000000000815260040161096590611129565b60405180910390fd5b6000600160008881526020019081526020016000209050858160050160006101000a81548160ff021916908360028111156109ac576109ab610bcc565b5b02179055507fc02ffb62207f94a89104e513c05efd755bfb16b444dd2e7a0bfb9bc26d100b2087876040516109e2929190611149565b60405180910390a150505050505050565b6000808154809291906001019190505550565b6040518060e0016040528060008152602001600073ffffffffffffffffffffffffffffffffffffffff168152602001600073ffffffffffffffffffffffffffffffffffffffff168152602001600081526020016000815260200160006002811115610a7457610a73610bcc565b5b8152602001600081525090565b600080fd5b6000819050919050565b610a9981610a86565b8114610aa457600080fd5b50565b600081359050610ab681610a90565b92915050565b600073ffffffffffffffffffffffffffffffffffffffff82169050919050565b6000610ae782610abc565b9050919050565b610af781610adc565b8114610b0257600080fd5b50565b600081359050610b1481610aee565b92915050565b60008060008060808587031215610b3457610b33610a81565b5b6000610b4287828801610aa7565b9450506020610b5387828801610aa7565b9350506040610b6487828801610aa7565b9250506060610b7587828801610b05565b91505092959194509250565b600060208284031215610b9757610b96610a81565b5b6000610ba584828501610aa7565b91505092915050565b610bb781610a86565b82525050565b610bc681610adc565b82525050565b7f4e487b7100000000000000000000000000000000000000000000000000000000600052602160045260246000fd5b60038110610c0c57610c0b610bcc565b5b50565b6000819050610c1d82610bfb565b919050565b6000610c2d82610c0f565b9050919050565b610c3d81610c22565b82525050565b60e082016000820151610c596000850182610bae565b506020820151610c6c6020850182610bbd565b506040820151610c7f6040850182610bbd565b506060820151610c926060850182610bae565b506080820151610ca56080850182610bae565b5060a0820151610cb860a0850182610c34565b5060c0820151610ccb60c0850182610bae565b50505050565b600060e082019050610ce66000830184610c43565b92915050565b600080600060608486031215610d0557610d04610a81565b5b6000610d1386828701610aa7565b9350506020610d2486828701610aa7565b9250506040610d3586828701610b05565b9150509250925092565b610d4881610a86565b82525050565b610d5781610adc565b82525050565b610d6681610c22565b82525050565b600060e082019050610d81600083018a610d3f565b610d8e6020830189610d4e565b610d9b6040830188610d4e565b610da86060830187610d3f565b610db56080830186610d3f565b610dc260a0830185610d5d565b610dcf60c0830184610d3f565b98975050505050505050565b60038110610de857600080fd5b50565b600081359050610dfa81610ddb565b92915050565b600080600060608486031215610e1957610e18610a81565b5b6000610e2786828701610aa7565b9350506020610e3886828701610deb565b9250506040610e4986828701610b05565b9150509250925092565b600082825260208201905092915050565b7f4f6e6c792073656c6c65722063616e206d6f6469667920746865206f66666572600082015250565b6000610e9a602083610e53565b9150610ea582610e64565b602082019050919050565b60006020820190508181036000830152610ec981610e8d565b9050919050565b7f4f66666572206973206e6f742061637469766500000000000000000000000000600082015250565b6000610f06601383610e53565b9150610f1182610ed0565b602082019050919050565b60006020820190508181036000830152610f3581610ef9565b9050919050565b7f456e6572677920616d6f756e74206d757374206265206772656174657220746860008201527f616e203000000000000000000000000000000000000000000000000000000000602082015250565b6000610f98602483610e53565b9150610fa382610f3c565b604082019050919050565b60006020820190508181036000830152610fc781610f8b565b9050919050565b7f5072696365206d7573742062652067726561746572207468616e203000000000600082015250565b6000611004601c83610e53565b915061100f82610fce565b602082019050919050565b6000602082019050818103600083015261103381610ff7565b9050919050565b600060608201905061104f6000830186610d3f565b61105c6020830185610d3f565b6110696040830184610d3f565b949350505050565b7f4f6666657220646f6573206e6f74206578697374000000000000000000000000600082015250565b60006110a7601483610e53565b91506110b282611071565b602082019050919050565b600060208201905081810360008301526110d68161109a565b9050919050565b7f496e76616c696420737461747573206368616e67650000000000000000000000600082015250565b6000611113601583610e53565b915061111e826110dd565b602082019050919050565b6000602082019050818103600083015261114281611106565b9050919050565b600060408201905061115e6000830185610d3f565b61116b6020830184610d5d565b939250505056fea26469706673582212200ffffc611f052552ce6bf62fec018c6719ce592a572efbf481fa138eea35918164736f6c63430008180033",
  "linkReferences": {},
  "deployedLinkReferences": {}
}